:100000006F00F04C1300000013000000130000000C
:100010001300000013000000130000001300000094
:100020001300000013000000130000001300000084
:08003000130000007300100032
:100038000000000000000000080300000C0300009E
:1000480000000000140C0000000000000000000088
:10005800160C0000180C0000000000000000000052
:100068001A0C0000000000001C0C0000000000003A
:100078001E0C0000200C0000220C0000240C0000C4
:10008800260C0000280C00002A0C00002C0C000094
:100098002E0C0000300C0000320C0000340C000064
:1000A800360C0000380C00003A0C00003C0C000034
:1000B8003E0C0000400C0000420C0000440C000004
:1000C800460C0000480C00004A0C00004C0C0000D4
:1000D8004E0C0000500C0000520C0000540C0000A4
:1000E800560C0000580C00005A0C00005C0C000074
:1000F8005E0C0000600C0000620C0000640C000044
:10010800660C0000680C00006A0C00006C0C000013
:100118006E0C0000700C0000720C0000740C0000E3
:10012800760C0000780C00007A0C00007C0C0000B3
:100138007E0C0000800C0000820C0000840C000083
:10014800860C0000880C00008A0C00008C0C000053
:100158008E0C0000900C0000920C0000940C000023
:10016800960C0000980C00009A0C00009C0C0000F3
:100178009E0C0000A00C0000A20C0000A40C0000C3
:10018800A60C0000A80C0000AA0C0000AC0C000093
:10019800AE0C0000B00C0000B20C0000B40C000063
:1001A800B60C0000B80C0000BA0C0000BC0C000033
:1001B800BE0C0000C00C0000C20C0000C40C000003
:1001C800C60C0000C80C0000CA0C0000CC0C0000D3
:1001D8000000000000000000000000000000000017
:1001E8000000000000000000000000000000000007
:0801F8000000000000000000FF
:10020000397101436EC619A0397141536AC866CA73
:1002100062CC5ECE19A0397101535AD056D252D455
:100220004ED64AD826DA22DC06DE330161408282CD
:1002300041114AC026C222C406C68282B24D410183
:10024000024D924C224CB24B4101024B924A224A3F
:10025000B2494101024992442244B24041018280A4
:100260003D432A876373C3029377F700BDEFADE583
:10027000937606FF3D8ABA960CC34CC30CC74CC795
:100280004107E36BD7FE11E28280B306C3408A06C2
:100290009702000096966780A6002307B700A30682
:1002A000B7002306B700A305B7002305B700A304D2
:1002B000B7002304B700A303B7002303B700A302CA
:1002C000B7002302B700A301B7002301B700A300C2
:1002D000B7002300B700828093F5F50F9396850051
:1002E000D58D93960501D58D61B79396270097021A
:1002F000000096968682E78086FA9680C1171D8F49
:100300003E96E374C3F8A5B77300203001A0EFF266
:100310003FF20146A1453715014013050580EF0066
:10032000F0300DBFEFF2DFF00546A1453715014073
:1003300013050580EF00902F31BFEFF27FEF0146EC
:1003400089453715014013050580EF00302E19B798
:10035000EFF21FEE01469145371501401305058068
:10036000EF00D02CC5BDEFF2BFEC93050008373588
:100370000140EF00705475F9E13F85453735014084
:10038000EF003053C1BDEFF2BFEA2A8493050008A5
:1003900037350140EF00505275F95D3FA285373582
:1003A0000140EF0010517DB5EFF29FE80546914501
:1003B0003715014013050580EF00502761BDEFF2AE
:1003C0003FE72A849305000837350140EF00D04EFF
:1003D00075F9D93FA28537350140EF00904D9DBD9D
:1003E000EFF27FE3AA89AE84328936841305A00236
:1003F000593F13D58900E13713F5F90FC937135564
:100400008900753F1375F90F5D3F1305B002A53FD5
:1004100013D584006D3713F5F40F55371355840049
:10042000793F1375F40F613F0DB5EFF27FE085471B
:100430006301F50201C989476304F5028D4763082A
:10044000F50209BD130560033D3F13058004853F98
:10045000CDBF13056003053F130580028D37D5B767
:10046000130560030D3713058008913FD9BF1305AD
:100470006003113F1305800E9937E1B79307F0131E
:1004800063EAA708EFF23FD9AA842E8A3284B6899C
:100490003A899307F00E63EEB7069307F01363EA09
:1004A000C7069307F00E63E6D7066374A600B2840E
:1004B0002A8463F54901D2874E8ABE89CE86228678
:1004C000D2852685313F1305C002753DB3049440A3
:1004D0008504B38749418507B384F4029DC89359C5
:1004E000890001441379F90F93050008373501405D
:1004F000EF00903C75F94D3DCE8537350140EF005A
:10050000503BCA8537350140EF00B03A0504E31D82
:1005100094FC25BB8280EFF2BFD12A879306F00EB0
:100520001306F01381450145913F2DB3EFF25FD0E3
:100530002A89AE84953D95C001449305000837355E
:100540000140EF00703775F98345090037350140E8
:10055000EF0030360504E31294FEEDB9EFF2DFCA86
:100560000111B28413D4860036C43AC6BE89428AC9
:1005700093FCF60F1374F40F9306F4FFAE961386F4
:10058000FCFF2A96C206C18242064182913D1305B4
:10059000C002D53B35C0228D135B8A0093DA8900F7
:1005A000811433848402931B1400014C66892DA8A6
:1005B000230E6101A30E410189456808853F0504AA
:1005C00063002403B397840013970701E35207FEE7
:1005D000230E5101A30E310189456808813FC5B73B
:1005E000050C890B630AAC01B247DE9783D4070080
:1005F000E3880CFE0144F9B7056199B1EFF2DFC061
:1006000041112A84AE8413DA860036C43AC6BE8B02
:10061000428B93F9F60F137AFA0F13091600930A17
:10062000F013130CF00E930C000205A0230431010B
:10063000A30441015A88DE87A2463247A685228557
:10064000313F4E944204418005090306F9FF19CE5B
:10065000B3073401E3DCFAFCD294C204C180B3874F
:1006600044016345FC00E31396FDF9BF4101C9BE97
:10067000EFF21FBC0546854537150140130505807F
:10068000EF00C07AC1BEEFF2BFBA51311305400688
:10069000EF001038413913054006EF00703771390B
:1006A000C13F4DBEEFF2DFB8F93F75390545EF00A8
:1006B00030361305B00CC139130590030933130507
:1006C000C002F5390145E53913054003CD39094527
:1006D000FD311305F00C45390145D5311305100CDA
:1006E000F93913050003E1391305800E6939130543
:1006F0005008F1310145E13113058007C931130577
:10070000A00E513101456539014555391305D00E0B
:100710009D391305400665310D4555314945453133
:100720001305100869391305700FB139130500035B
:1007300079311305000C8139414551311305100CF5
:1007400099314145AD391305500C35391305E00396
:10075000BD3113058002A5311305700C2D31130531
:100760006008B139130560033939130580048139F4
:100770001305A00309391305500591311305100B1A
:10078000193101452D3961451D391305600BE53ED1
:1007900021453531130520081D311305700205313F
:1007A0001305200FCD360145193913056002E13ECE
:1007B000054531311305000EF9363D450931130564
:1007C0001003F53E1305B002DD3E3145CD3E3945FF
:1007D000FD362145ED361305E004D5361305100F1F
:1007E000F93E13057003E13E1D45D13E4145C13E32
:1007F0000D45F1363945E1362545D1360145C1363D
:100800001305100E493601455D3E39454D3E5145B3
:100810007D360D456D3645455D361D454D36130516
:100820001003713E1305100C593E13058004413E20
:10083000214571363D45613631455136130510036A
:10084000BD3E13056003A53E3D45953E4545253E0D
:1008500013058007EF00D01B130590022D361305FA
:10086000C002B13E0D45D136F5B2EFF2DF9A01116B
:1008700002CA02CC02CE02C002C202C402C62318BF
:10088000010085451145EF00E078B947231AF100D2
:1008900041494ACE8D4426CC4C08371401401305FB
:1008A0000480C12193070002231AF100E1494ECED2
:1008B00026CC4C08130504806D2193070004231AED
:1008C000F10091473ECE4C08130504805929930747
:1008D0000008231AF1004ECE26CC4C0813050480E4
:1008E00049218547231AF1004ACE85473ECC4C0862
:1008F00013050480BD2185450565292F23100100BE
:10090000930740102311F10023120100231301006B
:1009100023140100930700202315F1002316010082
:10092000231701008A853735014021278545373552
:100930000140EF00A07505616FF03F91EFF25F8F0E
:100940000945D529552AEF00500A71651305052080
:10095000EF00F00F83A5818037350000130545298E
:10096000EF00301BD52EAA85373500001305452A28
:10097000EF00301A373500001305452BEF00102B20
:10098000ED350D330145EFF01FB9416413070480C5
:100990009306C0031306B00CD1455145EFF01FAECE
:1009A0003707002001489307F4FF83260708130741
:1009B00007085843373600001306C62CF945794519
:1009C00035391305401FEF00B004054605443719BB
:1009D000014013090980814419A026862684854593
:1009E0004A85A9211305401FEF0090027DF40546BA
:1009F0000544F5B74111B717024098431367170034
:100A000098C3D843B706FFF8758FD8C39843B70685
:100A1000F7FEFD16758F98C39843B706FCFFFD16C9
:100A2000758F98C3D843B70681FFFD16758FD8C35D
:100A30009843B70600ECFD16758F98C33707FF0083
:100A400098C723A6070202C402C69843C166558F01
:100A500098C337160240B706020005671C42F58F9F
:100A60003EC6A24785073EC4B24781E7A247E39747
:100A7000E7FEB71702409C431397E700635A07004D
:100A800085473EC6324785476306F70041018280AD
:100A900002C6CDBFB7170240D843D8C3D843D8C386
:100AA000D84313670740D8C3D843B706C1FFFD1624
:100AB000758FD8C3D843B7062900558FD8C398433C
:100AC000B7060001558F98C3371702401C43939611
:100AD0006700E3DD06FEB7170240D843719BD8C319
:100AE000D84313672700D8C3B71602402147DC421A
:100AF000B18BE39EE7FE59BFB7170240DC43B18BD1
:100B000011476387E7042147638BE70481CBB7175D
:100B10007A009387072023A4F18039A0B7177A00C1
:100B20009387072023A4F180B7170240DC43918309
:100B300013F7F700B707002093870700BA9783C61B
:100B400007009387818098433357D70098C38280EA
:100B5000B7177A009387072023A4F180F1B73717DE
:100B600002405C4354434167F98EC983BD8B1387B0
:100B7000270085C3BD476306F704C1476315F70027
:100B800081473D4709A8C5476310F704814741479E
:100B900019A081474947A1E6B746024083A60680CF
:100BA000C18A8DC6B7167A00938606203307D7020E
:100BB00023A4E180B5DB938781809843058398C3A4
:100BC000A5B785473547C1BF8147F1B7B7163D0087
:100BD000938606903307D70223A4E180E1BFB716BE
:100BE0000240D4421396E600635B0600B7163D0050
:100BF000938606903307D70223A4E18065BFB7161A
:100C00007A00938606203307D70223A4E1805DB7DC
:100C100001A001A001A001A001A001A001A001A0CC
:100C200001A001A001A001A001A001A001A001A0BC
:100C300001A001A001A001A001A001A001A001A0AC
:100C400001A001A001A001A001A001A001A001A09C
:100C500001A001A001A001A001A001A001A001A08C
:100C600001A001A001A001A001A001A001A001A07C
:100C700001A001A001A001A001A001A001A001A06C
:100C800001A001A001A001A001A001A001A001A05C
:100C900001A001A001A001A001A001A001A001A04C
:100CA00001A001A001A001A001A001A001A001A03C
:100CB00001A001A001A001A001A001A001A001A02C
:100CC00001A001A001A001A001A001A001A0970125
:100CD0000020938121BB177100201301A132172539
:100CE00000001305A56997F5FF1F9385A5311386AD
:100CF000018263FAC5008322050023A05500110577
:100D00009105E3EAC5FE13850182938541836377EC
:100D1000B500232005001105E36DB5FEFD4273907B
:100D200002BCAD4273904280B76200009382820899
:100D300073A0023097F2FFFF9382423093E23200B9
:100D400073905230EFF01FCB97020000938242BFA6
:100D50007390123473002030B7F7FF1F03A547705C
:100D600082809C4593F8F700C18B81C7DC41B3E8D2
:100D7000F80083C70500A9CB10418147054E3D4FC0
:100D8000930E8002930F8004214329A054C9850744
:100D9000638B6702B316FE0003D70500758FE398D7
:100DA000E6FE139727003318EF001348F8FF337659
:100DB000C8003397E800598E9845E309D7FDE3183A
:100DC000F7FD14C9E9B710C103D705009307F00F69
:100DD00063FDE7045041A147054EBD4F130F80024C
:100DE000930E8004414331A054C915A88507638D33
:100DF0006702B316FE0003D70500758FE398E6FE81
:100E00001397270001173398EF001348F8FF337644
:100E1000C8003397E800598E9845E307E7FD9845E9
:100E2000E316D7FD14C9D9B750C1828019C20CC9C5
:100E300082804CC9828023A0A1828280B7170240A1
:100E4000DC43B18B11476382E70821476385E708DC
:100E500099C7B7177A00938707201CC131A0B7172D
:100E60007A00938707201CC1371602405C429183A9
:100E7000BD8B3707002013070701BA9783C6070009
:100E80001C41B3D7D7005CC15442A1829D8ABA9657
:100E900083C60600B3D6D70014C55442AD829D8ADE
:100EA000369703470700B3D7E7005CC5584239833C
:100EB000937637001387C18036970347070013776F
:100EC000F70FB3D7E7021CC98280B7177A00938760
:100ED00007201CC151BF371702405C435843C1660D
:100EE000758FC983BD8B8907B7F6FF1F83A6C670B0
:100EF0001396160163470602454681466381C70281
:100F00003DE33747024003270780418B29C7371746
:100F10007A0013070720B387E7021CC179A8C947E5
:100F2000C5B789466381D702BD466381D702C146F2
:100F30006395D7008146BD47E1B7C546639BD7009F
:100F40008146C14775BF8146C9475DBF8546B547E4
:100F500045BF814675B737173D0013070790B38724
:100F6000E7021CC199A83717024058571316F7001B
:100F700063540608B7150240D85511833D8B050709
:100F800037167A00130606203357E60218C1D055EB
:100F900021823D8A0DEA131627003297058318C176
:100FA0003717024058573D8B050710413357E6026B
:100FB00018C11841B307F7021CC1E38706EA1C41B8
:100FC00085831CC155B58545630AB600BD45630FD1
:100FD000B60009063307E60218C1D9B71316170081
:100FE0003A960E063297058318C15DBF1316270087
:100FF00032970A0718C16DB73717024058573D8B13
:101000001306170037177A00130707203357C70254
:1010100018C145B799C5371702401C4F5D8D08CFE1
:101020008280B7170240984F1345F5FF798D88CF1E
:101030008280035705008D67938707047D8F83D7D0
:10104000050083D62500D58F83D64500D58F83D65E
:101050006500D58F83D68500D58F83D6A500D58F23
:1010600083D6C500D58F83D6E500D58FD98F2310C1
:10107000F5000357C501FD779387F77FF98F231E8E
:10108000F50083D705012318F500828081C98357B5
:10109000050093E707042310F500828083570500BD
:1010A000C207C18393F7F7FBC207C1832310F50082
:1010B00082802316B5008280035585006D8D3335FF
:1010C000A0008280EFF2CF9601112A84AE840357EC
:1010D0000501F577FD17F98F03D76500D98F231820
:1010E000F5000357C500FD779387379FF98F03D726
:1010F0004500D98F03D78500D98F03D7A500D98F95
:101100002316F50083574501C207C18393F7F7CF34
:1011100003D7C500D98F231AF50068000533B747F8
:10112000014093870780630FF40452478357C4003C
:10113000C207C18763CA070493171700BA978E07BF
:10114000BA9798400A07B3D7E70213074006B3D609
:10115000E7029206B3F7E7020357C400420741874C
:10116000634E070292079387270313074006B3D7FE
:10117000E702BD8BD58FC207C1832314F40005613C
:101180006FF04F8D62475DB793171700BA978E07C0
:10119000BA9798400607B3D7E70245BF13973700C1
:1011A00013072703930740063357F7021D8BB367D6
:1011B000D700D1B781C98357C5000967D98F2316D6
:1011C000F50082800357C500F977FD17F98F2316C4
:1011D000F500828093F5F51F2312B5008280035538
:1011E00005006D8D3335A000828083A7818037177D
:1011F0007A0013070720B3D7E70293F7F70F23838B
:10120000F1821307803EB387E7022392F182828046
:10121000B7F700E0D843799BD8C303D741823306A0
:10122000A702814690CBD4CB98431367070198C39C
:1012300098431367170298C337F700E05C43858B28
:10124000F5DF37F700E01C43F99B1CC38280EFE217
:101250003FFE01112A84854511651105653B930701
:101260000020231AF1008D473ECCE1473ECE4C08CA
:101270003715014013050580EFF0BFAE22C22314DD
:101280000100231501002316010023180100A147C6
:101290002317F1004C0037440140130504801D352D
:1012A000854513050480393705616FE0BFFAEFE229
:1012B0009FF6B2896357C002AE843389C5003744B4
:1012C000014013040480930500042285093F65DD75
:1012D00085048385F4FFC205C1812285E53DE314C1
:1012E00099FE4E856FE07FF603A701813A959387BB
:1012F0004183636CF500B78700209387078063E81C
:10130000A70023A8A1803A8582807D57EDBF7D5735
:10131000DDBF39713EDA2ED232D436D63AD842DC2D
:1013200046DE9387418122CC804326CA06CEAA841A
:1013300009C41C4C99E3228515230C4454102686BD
:10134000228536C6EF007016F2406244D244216115
:101350008280011126CA4AC806CE22CC4EC652C48B
:10136000AA842E8901C51C4D91E3CD299C4C804453
:1013700099E32685E52197270000938767F8631C8A
:10138000F402C0408357C400A18BB1C71C48A1C759
:10139000FD59294A1C4483450900FD17B1E91CC4C5
:1013A00063DE07062286A94526857120FD5763085E
:1013B000F502294535A097270000938767F6631447
:1013C000F4008044C1B797270000938767F1E31BBF
:1013D000F4FAC04445BFA2852685312A55D97D55EA
:1013E000F2406244D2444249B249224A05618280B5
:1013F0001CC4050963D70700184C63CBE700638959
:1014000045011C401387170018C02380B70059B747
:10141000228626850D20E31F35F7D1B71C401387A0
:10142000170018C029472380E70061B793874181DF
:10143000AA85884339BF011122CC26CA4AC806CEE4
:101440004EC6AA842E89328401C51C4D91E33921F0
:10145000972700009387C7EA6319F406C0401C4C25
:101460001CC48357C400A18BC9C31C48BDCF1C48F2
:1014700008409379F90F1379F90F1D8D5C48634685
:10148000F500A2852685652C2DE51C440505FD1774
:101490001CC41C401387170018C0238037015C4808
:1014A0006389A7008357C400858B81CBA947631646
:1014B000F900A285268561240DEDF24062444A853B
:1014C000D2444249B2490561828097270000938740
:1014D00027E56314F400804459B7972700009387E9
:1014E00027E0E31EF4F6C0449DBFA2852685212097
:1014F0003DDD7D59D9B741119387418126C284438F
:1015000022C44AC006C62A892E8489C49C4C99E309
:101510002685A92697270000938787DE631CF4029F
:10152000C0400317C40093170701C18393F68700D7
:10153000B5EE93F607019DEEA5472320F90013674A
:1015400007042316E4007D55B24022449244024928
:101550004101828097270000938787DC6314F400A1
:101560008044C1B797270000938787D7E31BF4FA1D
:10157000C04445BF918B8DC74C5889C9930744041B
:101580006384F5004A85352B232A04028357C4005F
:101590002322040093F7B7FD2316F4001C481CC057
:1015A0008357C40093E787002316F4001C4881EF9B
:1015B0008357C4001307002093F707286385E700CB
:1015C000A2854A8585218357C40013F7170005C7F4
:1015D0005C4823240400B307F0401CCC1C480145A0
:1015E000A5F78317C40013F7070839DF93E707044B
:1015F0002316F40089BF898B014791E3584818C42A
:10160000F1BF83D7C500011122CC26CA06CE4AC835
:101610004EC613F78700AA842E8471EFD841634D1C
:10162000E000B841634AE0000145F2406244D24420
:101630004249B2490561828058547DD703A904000C
:101640009396370123A0040063DD06067048835794
:10165000C400918B99C75C401D8E5C5899C33C4077
:101660001D8E5C540C50814626858297FD5703578A
:10167000C400631DF5009440F54763E8D706B7073B
:1016800040208507B3D7D700858BA5C31C482322EC
:1016900004001CC09317370163D80700FD5763147B
:1016A000F5009C4091E368C84C5823A02401ADDDAF
:1016B000930744046384F50026852121232A04022C
:1016C000A5B70C500146854626850297FD572A8608
:1016D000E31FF5F69C40A5DF75476385E700594792
:1016E0006394E70423A0240181B71367070423163A
:1016F000E4007D551DBF83A90501E38709F203A915
:1017000005008D8B23A0350133093941014791E351
:10171000D84918C4E35A20F11C540C50CA864E868E
:10172000268582976349A0008357C40093E7070486
:101730002316F4007DBFAA993309A940E1BF9C4953
:10174000B9CF011122CC06CE2A8411C51C4D81E7E8
:101750002EC62922B24597270000938767BA639B5C
:10176000F5004C408397C50095C722856244F2403E
:10177000056141BD97270000938787BA6394F50000
:101780000C44CDB797270000938787B5E39CF5FC01
:101790004C44C9BFF2406244014505618280014565
:1017A0008280411122C406C62A842316B50023175D
:1017B000C500232005002322050023240500232241
:1017C000050623280500232A0500232C05002146B1
:1017D00081451305C505EFE0BFA897170000938763
:1017E000A7B45CD097170000938707B71CD497174E
:1017F0000000938747BB5CD497170000938707BE10
:1018000000D01CD8B24022444101828097050000DC
:10181000938525F3A9A2411126C21306800693845D
:10182000F5FFB384C4024AC02E8922C406C693853C
:101830004407252E2A8401CD2320050023222501DB
:10184000310508C4138684068145EFE07FA1228517
:10185000B240224492440249410182801C4DADE3D2
:10186000411106C622C497070000938767FA1CD56A
:10187000938781819C432324050423260504232880
:1018800005046314F50085471CCD2A841D2848C033
:101890002285052808C422852D2048C448400146D9
:1018A0009145013708440546A545E53D48440946AC
:1018B000C945C53D85471CCCB240224441018280C8
:1018C000828041119387818126C284434AC006C623
:1018D0009C4C22C42A8999E3268549379384840441
:1018E0008044DC40FD1763D607009C40B9CF84409C
:1018F000C5BF0317C40039E7C17785072322040653
:101900002320040023220400232404005CC4232891
:101910000400232A0400232C0400214681451305DA
:10192000C405EFE0FF93232A0402232C040223249E
:101930000404232604042285B2402244924402492E
:10194000410182801304840671BF91454A85E135C7
:1019500088C051FDB1472320F9000144E9BF7971E6
:1019600022D44AD052CC56CA5AC85EC606D626D20F
:101970004ECE2A8AAE8A130485040149054BFD5BCD
:1019800009ECB25022544A8592540259F249624AF3
:10199000D24A424BB24B45618280044483294400C1
:1019A000FD1963D409000040E1BF83D7C400637B05
:1019B000FB008397E40063877701A6855285829AAE
:1019C0003369A90093848406E1BF1971A6DAAE8455
:1019D0008395E500A2DC86DE328463DC050083D7D4
:1019E000C40023A0060093F7070885E7930700408B
:1019F0001DA0300836C6EF00F023B246E34105FED5
:101A00007247BD67F98F7977BA9793B717009CC271
:101A1000F1BF930700041CC0F6506654D65401452C
:101A20000961828083D7C500011122CC06CE26CA67
:101A30004AC8898B2E8489CF930774041CC01CC8A4
:101A400085475CC8F2406244D244424905618280C5
:101A500074003000AA84953FA2452A892685312248
:101A600001ED8317C40013F7072069FFF19B93E78B
:101A700027002316F400C9B797070000938747D9BA
:101A80009CD48357C40008C008C893E707082316EE
:101A9000F400A2475CC8B24791CF8315E4002685C5
:101AA000EF00F01B01C98357C400F19B93E71700B7
:101AB0002316F4008357C4003369F9002316240168
:101AC00051B7DDC183A7C5FF411122C406C626C296
:101AD0001384C5FF63D307003E94AA84EF00101F50
:101AE000938781829C4381EF2322040023A4818277
:101AF0002244B2402685924441016F00501D637E0E
:101B0000F40014403307D4006396E7009843DC43A5
:101B1000369718C05CC0D9BFBA87D84319C3E37DD4
:101B2000E4FE94433386D700631F86001040B296CC
:101B300094C33386D700E31DC7FA10435843B296C7
:101B400094C3D8C375B76375C400B1479CC04DB783
:101B50001040B306C4006316D70014435843B2962E
:101B600014C058C0C0C369B78280011126CA9384CB
:101B70003500F19806CE22CC4AC84EC6A104B14722
:101B800063F3F404B14463E2B4042A89EF0010144F
:101B90009387818298433A8439E09387C1829C433A
:101BA00091E781454A85912F23A6A182A6854A8582
:101BB000A927FD5963193507B1472320F9004A8544
:101BC000EF00F01029A0E3D004FCB1471CC101458F
:101BD000F2406244D2444249B249056182801C40CD
:101BE000858F63CF0702AD4663F6F6001CC03E94B6
:101BF00004C031A05C406313870223A4F1824A85AC
:101C0000EF00F00C1305B40093074400619933070B
:101C1000F5405DDF3A94898F1CC05DBF5CC3C5B7DA
:101C20002287404095BF130435007198E30285FC7C
:101C3000B305A4404A85D125E31C35FBB5BF1C463E
:101C4000FD171CC663DA0700184E63C5E700A947F5
:101C50006394F5006FF02FFE1C422E85138717004A
:101C600018C22380B7008280011122CC26CA4AC83C
:101C70004EC652C406CE2A89AE893284B304D60039
:101C80007D5A63149400014509A8834504004E86DB
:101C90004A8575370504E31645FFF2406244D24495
:101CA0004249B249224A05618280357122CD26CB54
:101CB0004AC94EC706CF52C556C35AC1DEDEE2DC62
:101CC000E6DAAA89AE843289368409C51C4D99E3C7
:101CD000EFF0DFB89717000093878762639BF40CDF
:101CE00083A4490083D7C400A18BF5C79C48E5C7EE
:101CF00093070002A304F1029307000302D2230515
:101D0000F10222C6930B5002971A0000938A4A638D
:101D1000054C294B4A848347040099C36390770F8D
:101D2000B30C2441638D0C00E6864A86A6854E8559
:101D3000253FFD576306F51E9256E69636D2834739
:101D40000400638F071CFD571309140002C802CE5C
:101D50003ECA02CCA309010482D48345090015467A
:101D60005685812F13041900C24759E913F707015B
:101D700009C713070002A309E10413F7870009C785
:101D80001307B002A309E104834609001307A00268
:101D90006380E608F2474A848146254603470400EB
:101DA00093051400130707FD6379E60AB5CA3ECE12
:101DB00085A8971700009387A7566395F40083A41E
:101DC00089000DB79717000093878751E39CF4F0C3
:101DD00083A4C90001BFA6854E85EFF0CFF109D9D4
:101DE0007D55FA406A44DA444A49BA492A4A9A4A2D
:101DF0000A4BF65B665CD65C0D618280050421BFF0
:101E0000330555413315AC00C98F3EC82289B1B79F
:101E1000324793064700184336C6634907023ACE55
:101E2000034704009307E002631FF704034714000D
:101E30009307A002631BF702B24709041387470008
:101E40009C433AC663C107023ECA35A83307E04047
:101E500093E727003ACE3EC8E1B7B38767038546CC
:101E60002E84BA9725BFFD57C5B7050402CA81461F
:101E7000814725460347040093051400130707FD17
:101E80006376E606F1F2834504000D46171500005F
:101E90001305854B392D11CD971700009387C74A3D
:101EA0001D8D93070004B397A700424505045D8D7F
:101EB0002AC8834504001946171500001305054973
:101EC000130914002304B102ED233DC197E7FFFF7E
:101ED0009387471395E74247B2471377071009CF17
:101EE00091073EC69257D2973ED22DB5B38767036E
:101EF00085462E84BA97BDBF9D07E19BA107D5B744
:101F0000780097060000938666D626860C084E85D4
:101F100097000000E7000000FD572A8AE314F5FC53
:101F200083D7C40093F70704E39C07EA125555BD15
:101F3000780097060000938666D326860C084E85A7
:101F4000012AD9BF797156CA9C49BA8A984522D4C8
:101F500026D24ECE52CC06D64AD05AC85EC6AA89E0
:101F60002E84B284368A63D3E700BA879CC00347C5
:101F7000340419C385079CC01C4093F7070281C72E
:101F80009C4089079CC00329040013796900631AE7
:101F90000900130B9401FD5B5C449840998F634CDE
:101FA000F9041C408346340493F70702B336D0008B
:101FB000A5EB13063404D2854E85829AFD57630340
:101FC000F5041C4011469840998B54448144639712
:101FD000C700B384E64063D3040081441C4418481E
:101FE0006354F700998FBE94014969047D5B63983F
:101FF0002405014509A885465A86D2854E85829AD0
:10200000631E75017D55B250225492540259F24913
:10201000624AD24A424BB24B456182800509ADBF4C
:102020003307D40013060003A301C7040347540475
:1020300093871600A2978906A381E7049DBF854672
:102040002286D2854E85829AE30E65FB050945B747
:10205000797122D426D24AD04ECE06D652CC56CA58
:102060005AC8B68983C68501930790063289AA8427
:102070002E8413863504638DF60263E2D706930738
:1020800080056388F61863EDD70063810622930705
:102090003004638EF60A930A24042301D404C9A0F1
:1020A000930730066385F60A93074006E395F6FE2C
:1020B0001C40084393F6070893054500C5C61C411C
:1020C0000CC363D807001307D002B307F040A30185
:1020D000E404971600009386E62729476DA8930726
:1020E00000076384F61663E5D7029307E006638B67
:1020F000F6189307F006E390F6FA0C401C4313F829
:102100000508138547006307080608C39C438DA88C
:1021100093075007E383F6FE93078007638BF6125D
:1021200093073007E399F6F61C43D0418145938627
:10213000470014C383AA07005685A52E01C53305A1
:10214000554148C05C401CC8A301040471A81C434D
:10215000930A2404938647009C4314C32301F40488
:102160008547D5B793F607041C410CC3B9DAC207FB
:10217000C18781BF93F5050408C3C9D983D7070078
:102180001307F0066388E60E971600009386861CF8
:102190002947A30104044C400CC463C50500084052
:1021A0006D9908C099E3B28A91CDB28AB3F5E7027E
:1021B000FD1AB69583C505002380BA00B3D5E702A2
:1021C00063F0E70CA147631EF7001C40858B91CBA1
:1021D00058401C4863C7E70093070003A38FFAFE2B
:1021E000FD1A3306564110C84E87CA867000A28574
:1021F0002685EFF03FD57D5A631E450B7D55B250C5
:10220000225492540259F249624AD24A424B4561E1
:102210008280A382D504971600009386A6130C40F3
:10222000084313F805081C411105630D080208C393
:1022300013F7150001C793E505020CC04147B1FB38
:102240000C4093F5F5FD0CC0A9B79C4193E707023C
:102250009CC193078007A302F4049716000093869D
:10226000A61075BF13F8050408C3E30308FCC207F2
:10227000C1837DBF971600009386C60D214711BF0D
:10228000AE872DB794411C43CC4913F8060813853B
:1022900047006306080008C39C438CC301A808C319
:1022A00093F606049C43F5DA2390B7002328040034
:1022B000B28A1DBF14485686CA8526858299E30FC7
:1022C00045F31C40898B8DE7B2474844E359F5F24A
:1022D0003E8535B785465686CA8526858299E30FA1
:1022E00065F1050A5C443247998FE345FAFEE9BF80
:1022F000014A930A94017D5BF5B7411122C42A84F7
:102300002E8523A8018206C6EFE01FFEFD57631746
:10231000F500938701839C4391C31CC0B2402244C3
:1023200041018280411122C42E848395E50006C6B6
:102330004522634905007C48AA977CC8B2402244E4
:10234000410182808357C4007D777D17F98F231662
:10235000F400EDB783D7C500011122CC26CA4AC8C4
:102360004EC606CE93F70710AA842E843289B6890A
:1023700091C78395E5008946014631228357C40001
:102380007D777D17F98F2316F4008315E4006244EE
:10239000F240CE864A86B24942492685D24405613A
:1023A0003DA8411122C42E848395E50006C6E1288C
:1023B000FD570357C400631BF500FD77FD17F98F28
:1023C0002316F400B2402244410182808567D98FF0
:1023D0002316F40068C8FDB78395E50005A84111F0
:1023E00022C42A842E85B285368623A8018206C699
:1023F000EFE0FFEBFD576317F500938701839C43E4
:1024000091C31CC0B240224441018280411122C4C8
:102410002A842E8523A8018206C6CD20FD57631786
:10242000F500938701839C4391C31CC0B2402244B2
:1024300041018280411122C42A842E85B28523A8BD
:10244000018206C6D120FD576317F50093870183EB
:102450009C4391C31CC0B24022444101828041117F
:1024600022C42A842E8523A8018206C66520FD5732
:102470006317F500938701839C4391C31CC0B2404E
:10248000224441018280411122C42A842E85B285D2
:10249000368623A8018206C66120FD576317F50022
:1024A000938701839C4391C31CC0B24022444101E5
:1024B000828093F5F50F2A966314C500014582804A
:1024C00083470500E38DB7FE0505FDB78280828056
:1024D000411122C42A842E85B285368623A8018222
:1024E00006C6A920FD576317F500938701839C4317
:1024F00091C31CC0B24022444101828093078005F1
:1025000023A8F1827D5582809307800523A8F1825C
:102510007D5582809307800523A8F1820145828042
:102520009307800523A8F1827D558280930780055B
:1025300023A8F1827D558280000000000000000089
:10254000000000000000000000000000000000008B
:102550000000000000000000000000000000000C6F
:10256000000C000C000C000C000C000C000C000C0B
:10257000000C000C0000000C000C0000000000002B
:102580000000001B001B001B001B001B00000000C4
:10259000000000000000000000000000000000003B
:1025A0000000000000008019801980198019C07F88
:1025B000C07F80190033C07FC07F003300330033F9
:1025C00000330000000000000000001E003F807586
:1025D00080650074003C001E0007800580658065F2
:1025E0008075003F001E0004000400000000007021
:1025F00000D840D8C0D880D900730006000C801BDA
:10260000C036C066C046C00680030000000000005F
:102610000000001E003F003300330033001E000C9A
:10262000C03CC066806380618063C03E801C000047
:10263000000000000000000C000C000C000C000C5E
:10264000000000000000000000000000000000008A
:1026500000000000000000008000000100030006F0
:1026600000060004000C000C000C000C000C000C18
:102670000004000600060003000180000020001096
:102680000018000C000C00040006000600060006FE
:10269000000600060004000C000C001800100020CA
:1026A0000000000C002D003F001E00330000000061
:1026B000000000000000000000000000000000001A
:1026C00000000000000000000000000C000C000CE6
:1026D000000CC0FFC0FF000C000C000C000C000040
:1026E00000000000000000000000000000000000EA
:1026F00000000000000000000000000000000000DA
:102700000000000C000C00040004000800000000A1
:102710000000000000000000000000000000001E9B
:10272000001E00000000000000000000000000008B
:102730000000000000000000000000000000000099
:1027400000000000000000000000000C000C000071
:102750000000000000000003000300030006000664
:1027600000060006000C000C000C000C00180018FD
:1027700000180000000000000000001E003F0033B1
:10278000806180618061806D806D80618061806129
:102790000033003F001E00000000000000000006A3
:1027A000000E001E00360026000600060006000689
:1027B00000060006000600060006000000000000FB
:1027C0000000001E003F8073806180618001000373
:1027D0000006000C001800300060807F807F000041
:1027E000000000000000001C003E006300630003C6
:1027F000000E000E00038001800180618073003FA5
:10280000001E00000000000000000006000E000E88
:10281000001E001E0016003600360066807F807F96
:102820000006000600060000000000000000007F17
:10283000007F006000600060006E007F80638001A8
:10284000800180618073003F001E000000000000D6
:102850000000001E003F803380610060006E007F3A
:1028600080738061806180618033003F001E0000C2
:10287000000000000000807F807F800100030003D3
:1028800000060006000C000C000C000800180018E0
:1028900000180000000000000000001E003F8063E0
:1028A000806180610021001E003F80618061806145
:1028B0008061003F001E0000000000000000001EBC
:1028C000003F00738061806180618073803F801D64
:1028D000800180610073003F001E000000000000C6
:1028E00000000000000000000000000C000C0000D0
:1028F00000000000000000000000000C000C0000C0
:1029000000000000000000000000000000000000C7
:10291000000C000C00000000000000000000000C93
:10292000000C00040004000800000000000000008B
:1029300080008003000E003800600038000E800325
:102940008000000000000000000000000000000007
:10295000000000000000807F807F00000000807F7A
:10296000807F000000000000000000000000000068
:10297000000000000000000000400070001C000784
:1029800080010007001C00700040000000000000F3
:10299000000000000000001F803FC071C060C00048
:1029A000C00180030007000E000C000C0000000CAA
:1029B000000C0000000000000000001E003F8031FD
:1029C00080718063806F806D806D806F8067006034
:1029D0000032003E001C0000000000000000000E5D
:1029E000000E001B001B001B001B80318031803F4C
:1029F000803F8031C060C060C06000000000000007
:102A00000000007C007E0063006300630063007EC2
:102A1000007E0063806180618063007F007E000033
:102A2000000000000000001E003F80318061006057
:102A30000060006000600060006080618031003FE5
:102A4000001E0000000000000000007C007F00630A
:102A500080638061806180618061806180610063EA
:102A60000063007E007C0000000000000000807F0A
:102A7000807F0060006000600060007F007F006079
:102A8000006000600060807F807F00000000000028
:102A90000000807F807F0060006000600060007F39
:102AA000007F006000600060006000600060000067
:102AB000000000000000001E003F803180610060C7
:102AC0000060006080638063806180618031803F4E
:102AD000001E000000000000000080618061806135
:102AE000806180618061807F807F806180618061A2
:102AF0008061806180610000000000000000003FF4
:102B0000003F000C000C000C000C000C000C000C32
:102B1000000C000C000C003F003F00000000000013
:102B2000000080018001800180018001800180011E
:102B300080018001806180618073003F001E000081
:102B4000000000000000C060806100630066006655
:102B5000006C0078007C0066006600638061806124
:102B6000C060000000000000000000600060006025
:102B70000060006000600060006000600060006055
:102B80000060807F807F0000000000000000C071B6
:102B9000C071C07BC07AC06AC06AC06EC064C060C9
:102BA000C060C060C060C060C06000000000000085
:102BB000000080718071807980798079806D806D6E
:102BC000806D8065806780678067806380630000B8
:102BD000000000000000001E003F003380618061A3
:102BE0008061806180618061806180610033003F2D
:102BF000001E0000000000000000007E007F8063D7
:102C00008061806180618063007F007E0060006081
:102C10000060006000600000000000000000001E76
:102C2000003F0033806180618061806180618061EC
:102C3000806580670033803F401E00000000000078
:102C40000000007E007F8063806180618063007F80
:102C5000007E00660063006380618061C0600000E8
:102C6000000000000000000E001F803180310030A5
:102C70000038001E00078003806180618031003FC2
:102C8000001E0000000000000000C0FFC0FF000C9C
:102C9000000C000C000C000C000C000C000C000CD4
:102CA000000C000C000C000000000000000080611F
:102CB000806180618061806180618061806180610C
:102CC000806180618073003F001E000000000000F2
:102CD0000000C060C060C060803180318031001B66
:102CE000001B001B001B000E000E000E0004000065
:102CF000000000000000C0C0C0C0C0C0C0C0C0C054
:102D0000C0CC804C804C805E805280528073806149
:102D100080610000000000000000C0C08060806191
:102D20000033003B001E000C000C001E001F003B87
:102D300080718061C0C00000000000000000C0C0C1
:102D40008061806100330033001E001E000C000C07
:102D5000000C000C000C000C000C00000000000037
:102D60000000803F803F8001000300030006000C4C
:102D7000000C0018001800300060807F807F000089
:102D800000000000000F000F000C000C000C000CF5
:102D9000000C000C000C000C000C000C000C000CD3
:102DA000000C000C000F000F0000001800180018A5
:102DB000000C000C000C000C0006000600060006CB
:102DC000000300030003000000000000001E001EBE
:102DD00000060006000600060006000600060006C3
:102DE000000600060006000600060006001E001E83
:102DF0000000000C000C001E001200330033806144
:102E000080610000000000000000000000000000E1
:102E100000000000000000000000000000000000B2
:102E200000000000000000000000000000000000A2
:102E300000000000E0FF0000000000380018000C57
:102E40000000000000000000000000000000000082
:102E50000000000000000000000000000000000072
:102E6000000000000000001F803F80618001801F83
:102E7000803F80618063807FC038000000000000D8
:102E800000000060006000600060006E007F8073E2
:102E900080618061806180618073007F006E0000CE
:102EA0000000000000000000000000000000001E04
:102EB000003F807380610060006080618073003F2C
:102EC000001E000000000000000080018001800161
:102ED0008001801D803F807380618061806180619E
:102EE0008073803F801D0000000000000000000093
:102EF000000000000000001E003F00738061807F22
:102F0000807F00608071003F001E00000000000014
:102F10000000C007C00F000C000C807F807F000CF9
:102F2000000C000C000C000C000C000C000C00004D
:102F3000000000000000000000000000801D803F35
:102F4000807380618061806180618073803F801DBB
:102F500080018063007F003E000000600060006030
:102F60000060006F807F807180618061806180611E
:102F700080618061806100000000000000000006A8
:102F8000000600000000003E003E000600060006AD
:102F90000006000600060006000600000000000013
:102FA0000006000600000000003E003E000600068D
:102FB00000060006000600060006000600060046A1
:102FC000007E003C000000600060006000608061E6
:102FD00000630066006C007C007600630063806123
:102FE000C0600000000000000000003E003E00063F
:102FF00000060006000600060006000600060006A1
:1030000000060006000600000000000000000000AE
:1030100000000000000080DDC0FFC0CEC0CCC0CCEE
:10302000C0CCC0CCC0CCC0CCC0CC000000000000E4
:1030300000000000000000000000006F807F807131
:103040008061806180618061806180618061000059
:103050000000000000000000000000000000001E52
:10306000003F807380618061806180618073003F78
:10307000001E000000000000000000000000000032
:10308000006E007F807380618061806180618073E9
:10309000007F006E006000600060006000000000C3
:1030A00000000000801D803F80738061806180612E
:1030B00080618073803F801D8001800180018001DC
:1030C000000000000000000000000067803F0039A1
:1030D00000300030003000300030003000300000A0
:1030E0000000000000000000000000000000001EC2
:1030F000803F80610060007F803F80018061007FB1
:10310000001E000000000000000000000008001881
:103110000018007F007F0018001800180018001821
:103120000018801F800F0000000000000000000059
:10313000000000000000806180618061806180612A
:10314000806180618063807F803D0000000000001E
:1031500000000000000000000000C06080318031ED
:103160008031001B001B001B000E000E000600003B
:10317000000000000000000000000000000080DDF2
:1031800080DD80DD00550055005500770077002276
:10319000002200000000000000000000000000000D
:1031A0000000806100330033001E000C000C001E84
:1031B00000330033806100000000000000000000C8
:1031C0000000000080618061803100330033001B0B
:1031D000001B001B000E000E000E001C007C007087
:1031E00000000000000000000000C07FC07F8001E0
:1031F00000030006000C00180030C07FC07F0000F4
:10320000000000008003800700060006000600069C
:103210000006000E001C001C000E00060006000642
:103220000006000680078003000600060006000670
:10323000000600060006000600060006000600065E
:103240000006000600060006000600060038003CE6
:10325000000C000C000C000C000C000E0007000716
:10326000000E000C000C000C000C000C003C0038A0
:103270000000000000000000000000000000803896
:10328000807F0047000000000000000000000000F8
:103290000000000053797374656D436C6B3A2564CC
:1032A0000D0A00004368697049443A253038780DAA
:1032B0000A00000054686973206973207072696E97
:1032C0007466206578616D706C650D0048454C4FE3
:1032D00020466F6E742031317831380000000000D4
:1032E00000000000000000000000000000000000DE
:1032F00000000000000000000000000000000000CE
:1033000000000000000000000000000000000000BD
:1033100000000000000000000000000000000000AD
:10332000000000000000000000000000000000009D
:10333000000000000000000000000000232D302BE2
:1033400020000000686C4C00656667454647000039
:1033500030313233343536373839414243444546CB
:10336000000000003031323334353637383961628D
:083370006364656600000000C3
:10337800000000000000000001020304060708091D
:103388000000000001020304010203040607080903
:1033980000000000FC3200001C330000DC3200009A
:1033A8000000000000000000000000000000000015
:1033B8000000000000000000000000000000000005
:1033C80000000000000000000000000000000000F5
:1033D80000000000000000000000000000000000E5
:1033E80000000000000000000000000000000000D5
:1033F8000B1200003825000000D8B80502040608A2
:10340800B400002020000020200000200000000060
:00000001FF
